{"abi":[{"type":"constructor","inputs":[],"stateMutability":"nonpayable"},{"type":"function","name":"GOLD_THRESHOLD","inputs":[],"outputs":[{"name":"","type":"uint256","internalType":"uint256"}],"stateMutability":"view"},{"type":"function","name":"LOYALTY_PERIOD","inputs":[],"outputs":[{"name":"","type":"uint256","internalType":"uint256"}],"stateMutability":"view"},{"type":"function","name":"SILVER_THRESHOLD","inputs":[],"outputs":[{"name":"","type":"uint256","internalType":"uint256"}],"stateMutability":"view"},{"type":"function","name":"admin","inputs":[],"outputs":[{"name":"","type":"address","internalType":"address"}],"stateMutability":"view"},{"type":"function","name":"agents","inputs":[{"name":"","type":"string","internalType":"string"}],"outputs":[{"name":"totalStaked","type":"uint256","internalType":"uint256"},{"name":"firstStakeTimestamp","type":"uint256","internalType":"uint256"},{"name":"lastViolationTimestamp","type":"uint256","internalType":"uint256"},{"name":"isBlacklisted","type":"bool","internalType":"bool"}],"stateMutability":"view"},{"type":"function","name":"depositStake","inputs":[{"name":"botId","type":"string","internalType":"string"}],"outputs":[],"stateMutability":"payable"},{"type":"function","name":"getAgentTier","inputs":[{"name":"botId","type":"string","internalType":"string"}],"outputs":[{"name":"","type":"uint8","internalType":"uint8"}],"stateMutability":"view"},{"type":"function","name":"slashAgent","inputs":[{"name":"botId","type":"string","internalType":"string"}],"outputs":[],"stateMutability":"nonpayable"}],"bytecode":{"object":"0x6080604052348015600e575f5ffd5b50335f5f6101000a81548173ffffffffffffffffffffffffffffffffffffffff021916908373ffffffffffffffffffffffffffffffffffffffff160217905550610a5a8061005b5f395ff3fe60806040526004361061007a575f3560e01c8063c1a0db301161004d578063c1a0db3014610136578063cf6ee0cb14610160578063ec9fc5351461019f578063f851a440146101bb5761007a565b80630410b7091461007e5780633d6217ff146100a857806356973974146100d0578063ad99281b146100fa575b5f5ffd5b348015610089575f5ffd5b506100926101e5565b60405161009f91906105be565b60405180910390f35b3480156100b3575f5ffd5b506100ce60048036038101906100c99190610724565b6101ec565b005b3480156100db575f5ffd5b506100e46103bd565b6040516100f191906105be565b60405180910390f35b348015610105575f5ffd5b50610120600480360381019061011b9190610724565b6103c8565b60405161012d9190610786565b60405180910390f35b348015610141575f5ffd5b5061014a6104ba565b60405161015791906105be565b60405180910390f35b34801561016b575f5ffd5b5061018660048036038101906101819190610724565b6104c5565b60405161019694939291906107b9565b60405180910390f35b6101b960048036038101906101b49190610724565b610515565b005b3480156101c6575f5ffd5b506101cf610582565b6040516101dc919061083b565b60405180910390f35b62278d0081565b5f5f9054906101000a900473ffffffffffffffffffffffffffffffffffffffff1673ffffffffffffffffffffffffffffffffffffffff163373ffffffffffffffffffffffffffffffffffffffff161461027a576040517f08c379a0000000000000000000000000000000000000000000000000000000008152600401610271906108ae565b60405180910390fd5b5f610284826103c8565b905060028160ff16036102f857600a6001836040516102a3919061091e565b90815260200160405180910390205f01546102be919061098e565b6001836040516102ce919061091e565b90815260200160405180910390205f015f8282546102ec91906109be565b9250508190555061035b565b600260018360405161030a919061091e565b90815260200160405180910390205f0154610325919061098e565b600183604051610335919061091e565b90815260200160405180910390205f015f82825461035391906109be565b925050819055505b6001808360405161036c919061091e565b90815260200160405180910390206003015f6101000a81548160ff021916908315150217905550426001836040516103a4919061091e565b9081526020016040518091039020600201819055505050565b662386f26fc1000081565b5f5f6001836040516103da919061091e565b90815260200160405180910390206040518060800160405290815f82015481526020016001820154815260200160028201548152602001600382015f9054906101000a900460ff1615151515815250509050806060015180610445575066038d7ea4c68000815f0151105b15610453575f9150506104b5565b5f81602001514261046491906109be565b9050662386f26fc10000825f015110158015610483575062278d008110155b15610493576002925050506104b5565b6611c37937e08000825f0151106104af576001925050506104b5565b5f925050505b919050565b6611c37937e0800081565b6001818051602081018201805184825260208301602085012081835280955050505050505f91509050805f015490806001015490806002015490806003015f9054906101000a900460ff16905084565b5f600182604051610526919061091e565b908152602001604051809103902090505f815f01540361054a574281600101819055505b34815f015f82825461055c91906109f1565b925050819055505f816003015f6101000a81548160ff0219169083151502179055505050565b5f5f9054906101000a900473ffffffffffffffffffffffffffffffffffffffff1681565b5f819050919050565b6105b8816105a6565b82525050565b5f6020820190506105d15f8301846105af565b92915050565b5f604051905090565b5f5ffd5b5f5ffd5b5f5ffd5b5f5ffd5b5f601f19601f8301169050919050565b7f4e487b71000000000000000000000000000000000000000000000000000000005f52604160045260245ffd5b610636826105f0565b810181811067ffffffffffffffff8211171561065557610654610600565b5b80604052505050565b5f6106676105d7565b9050610673828261062d565b919050565b5f67ffffffffffffffff82111561069257610691610600565b5b61069b826105f0565b9050602081019050919050565b828183375f83830152505050565b5f6106c86106c384610678565b61065e565b9050828152602081018484840111156106e4576106e36105ec565b5b6106ef8482856106a8565b509392505050565b5f82601f83011261070b5761070a6105e8565b5b813561071b8482602086016106b6565b91505092915050565b5f60208284031215610739576107386105e0565b5b5f82013567ffffffffffffffff811115610756576107556105e4565b5b610762848285016106f7565b91505092915050565b5f60ff82169050919050565b6107808161076b565b82525050565b5f6020820190506107995f830184610777565b92915050565b5f8115159050919050565b6107b38161079f565b82525050565b5f6080820190506107cc5f8301876105af565b6107d960208301866105af565b6107e660408301856105af565b6107f360608301846107aa565b95945050505050565b5f73ffffffffffffffffffffffffffffffffffffffff82169050919050565b5f610825826107fc565b9050919050565b6108358161081b565b82525050565b5f60208201905061084e5f83018461082c565b92915050565b5f82825260208201905092915050565b7f4f6e6c792061646d696e000000000000000000000000000000000000000000005f82015250565b5f610898600a83610854565b91506108a382610864565b602082019050919050565b5f6020820190508181035f8301526108c58161088c565b9050919050565b5f81519050919050565b5f81905092915050565b8281835e5f83830152505050565b5f6108f8826108cc565b61090281856108d6565b93506109128185602086016108e0565b80840191505092915050565b5f61092982846108ee565b915081905092915050565b7f4e487b71000000000000000000000000000000000000000000000000000000005f52601260045260245ffd5b7f4e487b71000000000000000000000000000000000000000000000000000000005f52601160045260245ffd5b5f610998826105a6565b91506109a3836105a6565b9250826109b3576109b2610934565b5b828204905092915050565b5f6109c8826105a6565b91506109d3836105a6565b92508282039050818111156109eb576109ea610961565b5b92915050565b5f6109fb826105a6565b9150610a06836105a6565b9250828201905080821115610a1e57610a1d610961565b5b9291505056fea26469706673582212209ecf68a82693d0906e924fc1339292eca4f5e0e848a05b0e9355e94c51a10aff64736f6c63430008210033","linkReferences":{}},"methodIdentifiers":{"GOLD_THRESHOLD()":"56973974","LOYALTY_PERIOD()":"0410b709","SILVER_THRESHOLD()":"c1a0db30","admin()":"f851a440","agents(string)":"cf6ee0cb","depositStake(string)":"ec9fc535","getAgentTier(string)":"ad99281b","slashAgent(string)":"3d6217ff"},"id":0}