{"abi":[{"type":"constructor","inputs":[],"stateMutability":"nonpayable"},{"type":"function","name":"GOLD_THRESHOLD","inputs":[],"outputs":[{"name":"","type":"uint256","internalType":"uint256"}],"stateMutability":"view"},{"type":"function","name":"LOYALTY_PERIOD","inputs":[],"outputs":[{"name":"","type":"uint256","internalType":"uint256"}],"stateMutability":"view"},{"type":"function","name":"SILVER_THRESHOLD","inputs":[],"outputs":[{"name":"","type":"uint256","internalType":"uint256"}],"stateMutability":"view"},{"type":"function","name":"admin","inputs":[],"outputs":[{"name":"","type":"address","internalType":"address"}],"stateMutability":"view"},{"type":"function","name":"agents","inputs":[{"name":"","type":"string","internalType":"string"}],"outputs":[{"name":"totalStaked","type":"uint256","internalType":"uint256"},{"name":"firstStakeTimestamp","type":"uint256","internalType":"uint256"},{"name":"isBlacklisted","type":"bool","internalType":"bool"}],"stateMutability":"view"},{"type":"function","name":"depositStake","inputs":[{"name":"botId","type":"string","internalType":"string"}],"outputs":[],"stateMutability":"payable"},{"type":"function","name":"getAgentTier","inputs":[{"name":"botId","type":"string","internalType":"string"}],"outputs":[{"name":"","type":"uint8","internalType":"uint8"}],"stateMutability":"view"},{"type":"function","name":"slashAgent","inputs":[{"name":"botId","type":"string","internalType":"string"}],"outputs":[],"stateMutability":"nonpayable"}],"bytecode":{"object":"0x6080604052348015600e575f5ffd5b50335f5f6101000a81548173ffffffffffffffffffffffffffffffffffffffff021916908373ffffffffffffffffffffffffffffffffffffffff160217905550610a108061005b5f395ff3fe60806040526004361061007a575f3560e01c8063c1a0db301161004d578063c1a0db3014610136578063cf6ee0cb14610160578063ec9fc5351461019e578063f851a440146101ba5761007a565b80630410b7091461007e5780633d6217ff146100a857806356973974146100d0578063ad99281b146100fa575b5f5ffd5b348015610089575f5ffd5b506100926101e4565b60405161009f9190610582565b60405180910390f35b3480156100b3575f5ffd5b506100ce60048036038101906100c991906106e8565b6101e9565b005b3480156100db575f5ffd5b506100e4610394565b6040516100f19190610582565b60405180910390f35b348015610105575f5ffd5b50610120600480360381019061011b91906106e8565b61039f565b60405161012d919061074a565b60405180910390f35b348015610141575f5ffd5b5061014a610484565b6040516101579190610582565b60405180910390f35b34801561016b575f5ffd5b50610186600480360381019061018191906106e8565b61048f565b6040516101959392919061077d565b60405180910390f35b6101b860048036038101906101b391906106e8565b6104d9565b005b3480156101c5575f5ffd5b506101ce610546565b6040516101db91906107f1565b60405180910390f35b603c81565b5f5f9054906101000a900473ffffffffffffffffffffffffffffffffffffffff1673ffffffffffffffffffffffffffffffffffffffff163373ffffffffffffffffffffffffffffffffffffffff1614610277576040517f08c379a000000000000000000000000000000000000000000000000000000000815260040161026e90610864565b60405180910390fd5b5f6102818261039f565b905060028160ff16036102f557600a6001836040516102a091906108d4565b90815260200160405180910390205f01546102bb9190610944565b6001836040516102cb91906108d4565b90815260200160405180910390205f015f8282546102e99190610974565b92505081905550610358565b600260018360405161030791906108d4565b90815260200160405180910390205f01546103229190610944565b60018360405161033291906108d4565b90815260200160405180910390205f015f8282546103509190610974565b925050819055505b6001808360405161036991906108d4565b90815260200160405180910390206002015f6101000a81548160ff0219169083151502179055505050565b66038d7ea4c6800081565b5f5f6001836040516103b191906108d4565b90815260200160405180910390206040518060600160405290815f820154815260200160018201548152602001600282015f9054906101000a900460ff16151515158152505090508060400151806104115750655af3107a4000815f0151105b1561041f575f91505061047f565b5f8160200151426104309190610974565b905066038d7ea4c68000825f01511015801561044d5750603c8110155b1561045d5760029250505061047f565b6601c6bf52634000825f0151106104795760019250505061047f565b5f925050505b919050565b6601c6bf5263400081565b6001818051602081018201805184825260208301602085012081835280955050505050505f91509050805f015490806001015490806002015f9054906101000a900460ff16905083565b5f6001826040516104ea91906108d4565b908152602001604051809103902090505f815f01540361050e574281600101819055505b34815f015f82825461052091906109a7565b925050819055505f816002015f6101000a81548160ff0219169083151502179055505050565b5f5f9054906101000a900473ffffffffffffffffffffffffffffffffffffffff1681565b5f819050919050565b61057c8161056a565b82525050565b5f6020820190506105955f830184610573565b92915050565b5f604051905090565b5f5ffd5b5f5ffd5b5f5ffd5b5f5ffd5b5f601f19601f8301169050919050565b7f4e487b71000000000000000000000000000000000000000000000000000000005f52604160045260245ffd5b6105fa826105b4565b810181811067ffffffffffffffff82111715610619576106186105c4565b5b80604052505050565b5f61062b61059b565b905061063782826105f1565b919050565b5f67ffffffffffffffff821115610656576106556105c4565b5b61065f826105b4565b9050602081019050919050565b828183375f83830152505050565b5f61068c6106878461063c565b610622565b9050828152602081018484840111156106a8576106a76105b0565b5b6106b384828561066c565b509392505050565b5f82601f8301126106cf576106ce6105ac565b5b81356106df84826020860161067a565b91505092915050565b5f602082840312156106fd576106fc6105a4565b5b5f82013567ffffffffffffffff81111561071a576107196105a8565b5b610726848285016106bb565b91505092915050565b5f60ff82169050919050565b6107448161072f565b82525050565b5f60208201905061075d5f83018461073b565b92915050565b5f8115159050919050565b61077781610763565b82525050565b5f6060820190506107905f830186610573565b61079d6020830185610573565b6107aa604083018461076e565b949350505050565b5f73ffffffffffffffffffffffffffffffffffffffff82169050919050565b5f6107db826107b2565b9050919050565b6107eb816107d1565b82525050565b5f6020820190506108045f8301846107e2565b92915050565b5f82825260208201905092915050565b7f4f6e6c792061646d696e000000000000000000000000000000000000000000005f82015250565b5f61084e600a8361080a565b91506108598261081a565b602082019050919050565b5f6020820190508181035f83015261087b81610842565b9050919050565b5f81519050919050565b5f81905092915050565b8281835e5f83830152505050565b5f6108ae82610882565b6108b8818561088c565b93506108c8818560208601610896565b80840191505092915050565b5f6108df82846108a4565b915081905092915050565b7f4e487b71000000000000000000000000000000000000000000000000000000005f52601260045260245ffd5b7f4e487b71000000000000000000000000000000000000000000000000000000005f52601160045260245ffd5b5f61094e8261056a565b91506109598361056a565b925082610969576109686108ea565b5b828204905092915050565b5f61097e8261056a565b91506109898361056a565b92508282039050818111156109a1576109a0610917565b5b92915050565b5f6109b18261056a565b91506109bc8361056a565b92508282019050808211156109d4576109d3610917565b5b9291505056fea2646970667358221220f7b5c64e441d93d3517062637d03e37f39040a67f0a8260d7795f981450f502364736f6c63430008210033","linkReferences":{}},"methodIdentifiers":{"GOLD_THRESHOLD()":"56973974","LOYALTY_PERIOD()":"0410b709","SILVER_THRESHOLD()":"c1a0db30","admin()":"f851a440","agents(string)":"cf6ee0cb","depositStake(string)":"ec9fc535","getAgentTier(string)":"ad99281b","slashAgent(string)":"3d6217ff"},"id":0}