{"abi":[{"type":"constructor","inputs":[],"stateMutability":"nonpayable"},{"type":"function","name":"MIN_STAKE","inputs":[],"outputs":[{"name":"","type":"uint256","internalType":"uint256"}],"stateMutability":"view"},{"type":"function","name":"SLASH_AMOUNT","inputs":[],"outputs":[{"name":"","type":"uint256","internalType":"uint256"}],"stateMutability":"view"},{"type":"function","name":"admin","inputs":[],"outputs":[{"name":"","type":"address","internalType":"address"}],"stateMutability":"view"},{"type":"function","name":"botStakes","inputs":[{"name":"","type":"string","internalType":"string"}],"outputs":[{"name":"","type":"uint256","internalType":"uint256"}],"stateMutability":"view"},{"type":"function","name":"depositStake","inputs":[{"name":"botId","type":"string","internalType":"string"}],"outputs":[],"stateMutability":"payable"},{"type":"function","name":"isBlacklisted","inputs":[{"name":"","type":"string","internalType":"string"}],"outputs":[{"name":"","type":"bool","internalType":"bool"}],"stateMutability":"view"},{"type":"function","name":"isBotAllowed","inputs":[{"name":"botId","type":"string","internalType":"string"}],"outputs":[{"name":"","type":"bool","internalType":"bool"}],"stateMutability":"view"},{"type":"function","name":"slashBot","inputs":[{"name":"botId","type":"string","internalType":"string"},{"name":"reason","type":"string","internalType":"string"}],"outputs":[],"stateMutability":"nonpayable"},{"type":"function","name":"withdrawFees","inputs":[],"outputs":[],"stateMutability":"nonpayable"},{"type":"event","name":"Reinstated","inputs":[{"name":"botId","type":"string","indexed":false,"internalType":"string"}],"anonymous":false},{"type":"event","name":"Slashed","inputs":[{"name":"botId","type":"string","indexed":false,"internalType":"string"},{"name":"penalty","type":"uint256","indexed":false,"internalType":"uint256"},{"name":"reason","type":"string","indexed":false,"internalType":"string"}],"anonymous":false},{"type":"event","name":"Staked","inputs":[{"name":"botId","type":"string","indexed":false,"internalType":"string"},{"name":"amount","type":"uint256","indexed":false,"internalType":"uint256"}],"anonymous":false}],"bytecode":{"object":"0x6080604052348015600e575f5ffd5b50335f5f6101000a81548173ffffffffffffffffffffffffffffffffffffffff021916908373ffffffffffffffffffffffffffffffffffffffff160217905550610cd68061005b5f395ff3fe608060405260043610610085575f3560e01c80638ac2c7d9116100585780638ac2c7d91461012d578063cb1c2b5c14610169578063ec9fc53514610193578063f851a440146101af578063ff626727146101d957610085565b80631a057e371461008957806337720606146100b1578063476343ee146100db57806361c1b2e9146100f1575b5f5ffd5b348015610094575f5ffd5b506100af60048036038101906100aa919061083b565b610215565b005b3480156100bc575f5ffd5b506100c561040a565b6040516100d291906108c9565b60405180910390f35b3480156100e6575f5ffd5b506100ef610415565b005b3480156100fc575f5ffd5b50610117600480360381019061011291906108e2565b610509565b60405161012491906108c9565b60405180910390f35b348015610138575f5ffd5b50610153600480360381019061014e91906108e2565b610536565b6040516101609190610943565b60405180910390f35b348015610174575f5ffd5b5061017d61059b565b60405161018a91906108c9565b60405180910390f35b6101ad60048036038101906101a891906108e2565b6105a6565b005b3480156101ba575f5ffd5b506101c3610695565b6040516101d0919061099b565b60405180910390f35b3480156101e4575f5ffd5b506101ff60048036038101906101fa91906108e2565b6106b9565b60405161020c9190610943565b60405180910390f35b5f5f9054906101000a900473ffffffffffffffffffffffffffffffffffffffff1673ffffffffffffffffffffffffffffffffffffffff163373ffffffffffffffffffffffffffffffffffffffff16146102a3576040517f08c379a000000000000000000000000000000000000000000000000000000000815260040161029a90610a0e565b60405180910390fd5b5f6001836040516102b49190610a7e565b90815260200160405180910390205411610303576040517f08c379a00000000000000000000000000000000000000000000000000000000081526004016102fa90610ade565b60405180910390fd5b5f6601c6bf5263400060018460405161031c9190610a7e565b9081526020016040518091039020541015610355576001836040516103419190610a7e565b90815260200160405180910390205461035e565b6601c6bf526340005b9050806001846040516103719190610a7e565b90815260200160405180910390205f82825461038d9190610b29565b9250508190555060016002846040516103a69190610a7e565b90815260200160405180910390205f6101000a81548160ff0219169083151502179055507f534c7fed2cfabeaac2888b72e03917f6a790db94e83550a33e12e6b7fa62e9e68382846040516103fd93929190610b94565b60405180910390a1505050565b6601c6bf5263400081565b5f5f9054906101000a900473ffffffffffffffffffffffffffffffffffffffff1673ffffffffffffffffffffffffffffffffffffffff163373ffffffffffffffffffffffffffffffffffffffff16146104a3576040517f08c379a000000000000000000000000000000000000000000000000000000000815260040161049a90610a0e565b60405180910390fd5b5f5f9054906101000a900473ffffffffffffffffffffffffffffffffffffffff1673ffffffffffffffffffffffffffffffffffffffff166108fc4790811502906040515f60405180830381858888f19350505050158015610506573d5f5f3e3d5ffd5b50565b6001818051602081018201805184825260208301602085012081835280955050505050505f915090505481565b5f66038d7ea4c6800060018360405161054f9190610a7e565b9081526020016040518091039020541015801561059457506002826040516105779190610a7e565b90815260200160405180910390205f9054906101000a900460ff16155b9050919050565b66038d7ea4c6800081565b66038d7ea4c680003410156105f0576040517f08c379a00000000000000000000000000000000000000000000000000000000081526004016105e790610c21565b60405180910390fd5b346001826040516106019190610a7e565b90815260200160405180910390205f82825461061d9190610c3f565b925050819055505f6002826040516106359190610a7e565b90815260200160405180910390205f6101000a81548160ff0219169083151502179055507fd4e8c1b6a3f1687431f3cab16d64917c35c3c7886915cfb45679175de5b373a5813460405161068a929190610c72565b60405180910390a150565b5f5f9054906101000a900473ffffffffffffffffffffffffffffffffffffffff1681565b6002818051602081018201805184825260208301602085012081835280955050505050505f915054906101000a900460ff1681565b5f604051905090565b5f5ffd5b5f5ffd5b5f5ffd5b5f5ffd5b5f601f19601f8301169050919050565b7f4e487b71000000000000000000000000000000000000000000000000000000005f52604160045260245ffd5b61074d82610707565b810181811067ffffffffffffffff8211171561076c5761076b610717565b5b80604052505050565b5f61077e6106ee565b905061078a8282610744565b919050565b5f67ffffffffffffffff8211156107a9576107a8610717565b5b6107b282610707565b9050602081019050919050565b828183375f83830152505050565b5f6107df6107da8461078f565b610775565b9050828152602081018484840111156107fb576107fa610703565b5b6108068482856107bf565b509392505050565b5f82601f830112610822576108216106ff565b5b81356108328482602086016107cd565b91505092915050565b5f5f60408385031215610851576108506106f7565b5b5f83013567ffffffffffffffff81111561086e5761086d6106fb565b5b61087a8582860161080e565b925050602083013567ffffffffffffffff81111561089b5761089a6106fb565b5b6108a78582860161080e565b9150509250929050565b5f819050919050565b6108c3816108b1565b82525050565b5f6020820190506108dc5f8301846108ba565b92915050565b5f602082840312156108f7576108f66106f7565b5b5f82013567ffffffffffffffff811115610914576109136106fb565b5b6109208482850161080e565b91505092915050565b5f8115159050919050565b61093d81610929565b82525050565b5f6020820190506109565f830184610934565b92915050565b5f73ffffffffffffffffffffffffffffffffffffffff82169050919050565b5f6109858261095c565b9050919050565b6109958161097b565b82525050565b5f6020820190506109ae5f83018461098c565b92915050565b5f82825260208201905092915050565b7f4f6e6c792061646d696e2063616e20656e666f726365000000000000000000005f82015250565b5f6109f86016836109b4565b9150610a03826109c4565b602082019050919050565b5f6020820190508181035f830152610a25816109ec565b9050919050565b5f81519050919050565b5f81905092915050565b8281835e5f83830152505050565b5f610a5882610a2c565b610a628185610a36565b9350610a72818560208601610a40565b80840191505092915050565b5f610a898284610a4e565b915081905092915050565b7f4e6f207374616b6520746f20736c6173680000000000000000000000000000005f82015250565b5f610ac86011836109b4565b9150610ad382610a94565b602082019050919050565b5f6020820190508181035f830152610af581610abc565b9050919050565b7f4e487b71000000000000000000000000000000000000000000000000000000005f52601160045260245ffd5b5f610b33826108b1565b9150610b3e836108b1565b9250828203905081811115610b5657610b55610afc565b5b92915050565b5f610b6682610a2c565b610b7081856109b4565b9350610b80818560208601610a40565b610b8981610707565b840191505092915050565b5f6060820190508181035f830152610bac8186610b5c565b9050610bbb60208301856108ba565b8181036040830152610bcd8184610b5c565b9050949350505050565b7f5374616b652062656c6f77206d696e696d756d20726571756972656d656e74005f82015250565b5f610c0b601f836109b4565b9150610c1682610bd7565b602082019050919050565b5f6020820190508181035f830152610c3881610bff565b9050919050565b5f610c49826108b1565b9150610c54836108b1565b9250828201905080821115610c6c57610c6b610afc565b5b92915050565b5f6040820190508181035f830152610c8a8185610b5c565b9050610c9960208301846108ba565b939250505056fea264697066735822122004c41a3a3b1990c100b5a11dcf8aafc1c5632867c5284e6269186b8edc9c566864736f6c63430008210033","linkReferences":{}},"methodIdentifiers":{"MIN_STAKE()":"cb1c2b5c","SLASH_AMOUNT()":"37720606","admin()":"f851a440","botStakes(string)":"61c1b2e9","depositStake(string)":"ec9fc535","isBlacklisted(string)":"ff626727","isBotAllowed(string)":"8ac2c7d9","slashBot(string,string)":"1a057e37","withdrawFees()":"476343ee"},"id":0}