{"abi":[{"type":"constructor","inputs":[],"stateMutability":"nonpayable"},{"type":"function","name":"admin","inputs":[],"outputs":[{"name":"","type":"address","internalType":"address"}],"stateMutability":"view"},{"type":"function","name":"banBot","inputs":[{"name":"botId","type":"string","internalType":"string"},{"name":"reason","type":"string","internalType":"string"}],"outputs":[],"stateMutability":"nonpayable"},{"type":"function","name":"blacklistedBots","inputs":[{"name":"","type":"string","internalType":"string"}],"outputs":[{"name":"","type":"bool","internalType":"bool"}],"stateMutability":"view"},{"type":"function","name":"isBotAllowed","inputs":[{"name":"botId","type":"string","internalType":"string"}],"outputs":[{"name":"","type":"bool","internalType":"bool"}],"stateMutability":"view"},{"type":"event","name":"BotBanned","inputs":[{"name":"botId","type":"string","indexed":false,"internalType":"string"},{"name":"reason","type":"string","indexed":false,"internalType":"string"}],"anonymous":false}],"bytecode":{"object":"0x6080604052348015600e575f5ffd5b50335f5f6101000a81548173ffffffffffffffffffffffffffffffffffffffff021916908373ffffffffffffffffffffffffffffffffffffffff16021790555061068d8061005b5f395ff3fe608060405234801561000f575f5ffd5b506004361061004a575f3560e01c8063685ec2001461004e5780638ac2c7d91461007e5780638e20631d146100ae578063f851a440146100ca575b5f5ffd5b610068600480360381019061006391906103c2565b6100e8565b6040516100759190610423565b60405180910390f35b610098600480360381019061009391906103c2565b61011d565b6040516100a59190610423565b60405180910390f35b6100c860048036038101906100c3919061043c565b610151565b005b6100d2610251565b6040516100df91906104f1565b60405180910390f35b6001818051602081018201805184825260208301602085012081835280955050505050505f915054906101000a900460ff1681565b5f60018260405161012e919061055c565b90815260200160405180910390205f9054906101000a900460ff16159050919050565b5f5f9054906101000a900473ffffffffffffffffffffffffffffffffffffffff1673ffffffffffffffffffffffffffffffffffffffff163373ffffffffffffffffffffffffffffffffffffffff16146101df576040517f08c379a00000000000000000000000000000000000000000000000000000000081526004016101d6906105cc565b60405180910390fd5b600180836040516101f0919061055c565b90815260200160405180910390205f6101000a81548160ff0219169083151502179055507fb0455743f1e1d70440b92535956ce0d9dae95fb62be130a8d2b65ccf71bf96868282604051610245929190610622565b60405180910390a15050565b5f5f9054906101000a900473ffffffffffffffffffffffffffffffffffffffff1681565b5f604051905090565b5f5ffd5b5f5ffd5b5f5ffd5b5f5ffd5b5f601f19601f8301169050919050565b7f4e487b71000000000000000000000000000000000000000000000000000000005f52604160045260245ffd5b6102d48261028e565b810181811067ffffffffffffffff821117156102f3576102f261029e565b5b80604052505050565b5f610305610275565b905061031182826102cb565b919050565b5f67ffffffffffffffff8211156103305761032f61029e565b5b6103398261028e565b9050602081019050919050565b828183375f83830152505050565b5f61036661036184610316565b6102fc565b9050828152602081018484840111156103825761038161028a565b5b61038d848285610346565b509392505050565b5f82601f8301126103a9576103a8610286565b5b81356103b9848260208601610354565b91505092915050565b5f602082840312156103d7576103d661027e565b5b5f82013567ffffffffffffffff8111156103f4576103f3610282565b5b61040084828501610395565b91505092915050565b5f8115159050919050565b61041d81610409565b82525050565b5f6020820190506104365f830184610414565b92915050565b5f5f604083850312156104525761045161027e565b5b5f83013567ffffffffffffffff81111561046f5761046e610282565b5b61047b85828601610395565b925050602083013567ffffffffffffffff81111561049c5761049b610282565b5b6104a885828601610395565b9150509250929050565b5f73ffffffffffffffffffffffffffffffffffffffff82169050919050565b5f6104db826104b2565b9050919050565b6104eb816104d1565b82525050565b5f6020820190506105045f8301846104e2565b92915050565b5f81519050919050565b5f81905092915050565b8281835e5f83830152505050565b5f6105368261050a565b6105408185610514565b935061055081856020860161051e565b80840191505092915050565b5f610567828461052c565b915081905092915050565b5f82825260208201905092915050565b7f4f6e6c792061646d696e2063616e20656e666f726365000000000000000000005f82015250565b5f6105b6601683610572565b91506105c182610582565b602082019050919050565b5f6020820190508181035f8301526105e3816105aa565b9050919050565b5f6105f48261050a565b6105fe8185610572565b935061060e81856020860161051e565b6106178161028e565b840191505092915050565b5f6040820190508181035f83015261063a81856105ea565b9050818103602083015261064e81846105ea565b9050939250505056fea264697066735822122052fc23a003a069f917d6673e1353bd63622aee4c353640a04ef45672080f6bcc64736f6c63430008210033","linkReferences":{}},"methodIdentifiers":{"admin()":"f851a440","banBot(string,string)":"8e20631d","blacklistedBots(string)":"685ec200","isBotAllowed(string)":"8ac2c7d9"},"id":0}